:020000040800F2
:10000000F0050020D9000008E1000008E300000826
:1000100000000000000000000000000000000000E0
:10002000000000000000000000000000E5000008E3
:100030000000000000000000E7000008E9000008E0
:10004000000000000000000000000000EB000008BD
:10005000EB000008EB000008EB000008EB000008D4
:100060000000000000000000000000000000000090
:10007000EB000008F9130008EB0000080000000086
:1000800000000000EB0000080000000075130008ED
:10009000000000000000000000000000EB0000086D
:1000A00000000000EB00000800000000DD14000864
:1000B0000000000000000000000000000000000040
:1000C0000448854600F03EF8004800470119000842
:1000D000C046C046F0050020044880470448004759
:1000E000FEE7FEE7FEE7FEE7FEE7FEE74D1200084B
:1000F000C100000830B50B46014600202022012433
:1001000009E00D46D5409D4205D31D469540491B4B
:100110002546954040191546521E002DF1DC30BD94
:10012000D2B201E00270401C491EFBD2704700228F
:10013000F6E710B513460A4604461946FFF7F0FFE6
:10014000204610BD064C0125064E05E0E36807CCAD
:100150002B430C3C98471034B442F7D3FFF7B4FF5D
:10016000CC1A0008EC1A000810B52C4800780028BA
:1001700006D000202949087000F08CF800F020FB20
:1001800027480078002824D00020254908702548F9
:10019000007800281DD000202249087000BF07E029
:1001A0008100214A51588200204B9950411CC8B20D
:1001B0000628F5DB002008E081001D4A5258811D09
:1001C00089001A4B5A50411CC8B22028F4DB00F0B9
:1001D00079FC1848007800281FD0002015490870C5
:1001E00015480078002818D014480068002803D16A
:1001F00013480078012810D112480078002804D054
:100200001148007801F002F807E010480078002853
:1002100003D00D48007800F0F9FF10BD3400002035
:10022000400000201D00002054000020EC000020B1
:100230006C000020410000201C000020180000205D
:100240002100002029000020230000201E000020A3
:1002500000BFFEE7002007E081000B4A51588200F2
:100260000A4B9950411CC8B20628F5DB002008E073
:10027000811D8900044A51588200054B9950411C48
:10028000C8B22028F4DB7047EC00002054000020A6
:100290006C00002010B5F9480068002805D0F74828
:1002A0000068401EF549086010BDF548007803005D
:1002B00001F02CF90D0824385A93F0EEEDECEBEA3E
:1002C000E9E8E70000F044FA0421EE4800F01CFDE4
:1002D000002806D11420E94908600120E849087087
:1002E0000BE00821E74800F00FFD002805D114209D
:1002F000E24908600720E24908701AE20421E14857
:1003000000F002FD002803D10220DD49087008E05A
:100310000421DC4800F0F8FC012802D10020D84973
:10032000087006E20421D74800F0EEFC002814D142
:10033000D5480068401CD449086008460068D34985
:10034000884210D90620CE4908700020CE490860A6
:10035000FF202D30C949086005E00320C849087016
:100360001420C6490860E4E1C9480068401CC84937
:1003700008600421C34800F0C7FC012813D1C44819
:1003800000681921490188420DD90420BC49087030
:100390000020BF4908600120BE490870FF202D30B1
:1003A000B649086018E00421B64800F0ADFC00280A
:1003B00012D1B74800681921490188420CD20520A2
:1003C000AF4908700020B24908600120B1490870A7
:1003D000FF202D30A9490860ABE1AE480078002825
:1003E00007D000F0D1F9042000F010FF0020A94947
:1003F0000870A9480068401CA7490860A748006821
:10040000A749096888422DD0A4480068002829D04F
:100410000020A1490860A1480068A14908600024A3
:100420001DE0A0009F4908589D49096809098842B4
:1004300000D116E0A0009B490858401C00280CD1B0
:10044000974800680009A100964A5050062000F025
:10045000DDFE01209449087003E0601CC4B2062C44
:10046000DFDB00BF8C4800689049884208D9002033
:1004700089490860824908707D2000017F49086031
:1004800057E155E136E119E1ECE0B8E095E080E0B4
:1004900050E0FFE77F48007800280AD002210520BD
:1004A000000700F043FC052000F0B0FE0020794971
:1004B000087079480068401C7749086077480068F0
:1004C0007749096888422DD074480068002829D0EF
:1004D0000020714908607148006871490860002473
:1004E0001DE0A000724908586D4909680909884251
:1004F00000D116E0A0006E490858401C00280CD11D
:10050000674800680009A100694A5050062000F0C1
:100510007DFE01206449087003E0601CC4B2202CF9
:10052000DFDB00BF7D2000015449086000205449F2
:100530000870FEE00B2000F069FE002006E00021BC
:10054000C94382005A4B9950411CC8B22028F6DB9F
:10055000002006E00021C9438200524B9950411C03
:10056000C8B20628F6DB002006E00021C94382005D
:10057000504B9950411CC8B24028F6DB01204A4933
:1005800008707D2000013D49086000203C4908704A
:10059000CFE008213B4800F0B7FB002803D108203A
:1005A0003749087008E00821364800F0ADFB012803
:1005B00002D1002032490870BBE00821314800F028
:1005C000A3FB002814D130480068401C2E49086065
:1005D000084600682D49884210D90C202849087027
:1005E000002029490860FF202D302449086005E0DB
:1005F00009202349087014202049086099E0244804
:100600000068401C2249086008211E4800F07CFB5D
:10061000012810D11E4800681921490188420AD9D1
:100620000A2017490870002019490860FF202D3062
:100630001249086015E00821124800F065FB002807
:100640000FD11348006819214901884209D20B20B3
:100650000B49087000200E490860FF202D30074923
:10066000086066E00020144908707D20C00003493E
:1006700008600020024908705BE0000004000020D0
:10068000220000200004005008000020B80B0000E9
:100690000C00002020000020100000204C00002052
:1006A00024000020540000201D00002088130000BA
:1006B0006C000020EC0000201C0000201E48007888
:1006C000092809DA1C490978491CC9B21A4A11706B
:1006D000084600F09BFD06E0072017490870084611
:1006E000007800F093FD1548154908600020154971
:1006F00008701EE014480078002809D00020124934
:100700000870012011490870022000F07FFD07E009
:1007100001200D4908700D490870032000F076FD96
:100720007D2000010649086000200649087000E0AD
:1007300000BF00BF00BFB7E523000020B80B0000DA
:100740000400002022000020290000201C000020BE
:1007500010B510210520000700F0EEFA0821052051
:10076000000700F0E9FA02210520000700F0E4FA92
:1007700001210520000700F0DFFA0121014800F007
:10078000DBFA10BD0004005010B510210520000751
:1007900000F0CCFA08210520000700F0C7FA02217A
:1007A0000520000700F0C2FA01210520000700F033
:1007B000BDFA0121014800F0B9FA10BD0004005053
:1007C00010B552480068002804D050480068401E08
:1007D0004E4908604E480068002805D04C48006823
:1007E000401E4B49086010BD002017E08100494AB7
:1007F0005158494A1268120991420DD14749444A59
:10080000116045490968464A11600021424A116059
:100810000121444A117003E0411CC8B20628E5DBFF
:1008200000BF4048007800286ED000203D49087085
:100830003B4800780007000F3B49087008460078E5
:10084000012806D002280FD0042817D008285AD132
:1008500050E00020354908700120354908703549BD
:100860000870354908704EE00120324908700C20AC
:1008700000F0CCFC00202C49087044E02F480078A0
:10088000052805DA2D480078401C2C49087002E044
:1008900000202A49087029480078030000F036FE3D
:1008A00005040B121920270025481849086000206C
:1008B000214908701CE023481449086000201E49A3
:1008C000087015E020481149086000201A49087096
:1008D0000EE01E480D49086000201749087007E027
:1008E00000200A49086001201349087000E000BF99
:1008F00000BF08E00D2000F089FC00200D490870C1
:100900000949087000BF00BF00BF6CE71800002055
:1009100014000020540000204C000020B80B000000
:100920002C0000201F0000202800002029000020AB
:100930001C0000201E0000202100002030000020AC
:100940008813000010270000983A0000204E000095
:1009500008B505494143009100BF00BF00994A1EF8
:1009600000920029F9D108BDB80B000000B50020A5
:1009700009E00649411809680022D243914201D09A
:10098000FFF766FC001DFF28F3D900BD00400008FA
:1009900070B51C4C1C4D32E000BF1C4800F006F93D
:1009A0000128FAD0194800F0FBF800BF1748406949
:1009B000022108431549486100BF00BF0020C04321
:1009C000206000BF00BF114800F0F0F80128FAD005
:1009D00000BF0E4800F0F1F80028FAD000BF012057
:1009E0000A49086100BF084600F0D4F800BF074874
:1009F0004069022188430549486100BF8034AC4208
:100A0000CAD370BD00400008004100080020024029
:100A100000B500200BE081088900064A5158064ABB
:100A200082181268914201D0FFF712FC001DFF28C6
:100A3000F1D900BDEC0000200040000870B51D4C4D
:100A40001D4E1E4D33E000BF1D4800F0AFF80128D9
:100A5000FAD01B4800F0A4F800BF194840690121F2
:100A600008431749486100BF2A462146144800F050
:100A7000ACF800BF124800F099F80128FAD000BF86
:100A80000F4800F09AF80028FAD000BF01200C4966
:100A9000086100BF084600F07DF800BF08484069C3
:100AA000400840000649486100BF80348035B442A8
:100AB000C9D370BD0040000800410008EC000020D0
:100AC0000020024010B500BF264880682649084330
:100AD0002449886008468068244908432149886081
:100AE00000BF00BF2248808BC005C00D21490860AF
:100AF0001F48C0690001800D48601D48C06980031F
:100B0000C00D08611A48008CC005C00D88601848E7
:100B1000006A0001000DC8601548406A8003800B20
:100B200048611348806A8003800B88611048808D7B
:100B300080B2C8610E48C06A8000800C086200BFA5
:100B4000FFF726FFFFF712FFFFF778FF00BF05480A
:100B500040690121C90708430249486100BFFFF706
:100B600057FF10BD0020024023016745AB89EFCD40
:100B70000001FF1F0021024008B505490968014333
:100B8000034A1160114609680140009100BF08BD89
:100B900040100240416901221206914341617047B1
:100BA00041690122120611434161704701460869FB
:100BB000012212041040000C704701460869C0076A
:100BC000C00F0122504050407047F7B50B4600213E
:100BD0001C46029D00BFEFF31086324672B60FE04E
:100BE0002E6826602D1D241D4E1CF1B21F2907D131
:100BF00000BF46690127FF043E43466100BF00BFB6
:100C00002029EDD300BF82F3108800BFFEBDF0B5F0
:100C100002460B46002661E00124B44019682140D9
:100C200000295AD0586814680D464D436F00ED19DD
:100C3000AC430D464D4345432C43146000BF5868F8
:100C4000012802D0586802280DD1986894680D4692
:100C50004D436F00ED19AC430D464D4345432C43C6
:100C6000946000BF00BF1869D4680D464D436F0003
:100C7000ED19AC430D464D4345432C43D46000BFB2
:100C80005868022829D1FF2911D85869146A0D46DD
:100C90004D434D434D43EF007D1BAC430D464D434B
:100CA0004D434D4345432C43146200BF15E05F693B
:100CB000080A40430C0A60430C0A6043C400241A2B
:100CC000506AA0430C0A64430D0A6C430D0A6C433E
:100CD0007C432043506200BF00BF761C1868F04080
:100CE000002899D15868012802D05868022809D1F3
:100CF000DC68186855688543074667433D4355607F
:100D000000BF00BF0020F0BD0246106908408842C5
:100D100001D1012070470020FCE70246106908401D
:100D2000884201D1012070470020FCE781627047B2
:100D300081627047816170478161704708B50549DC
:100D4000496B0143034A51631146496B01400091CD
:100D500000BF08BD0010024070B504467D25ED00BF
:100D600029462046FFF7C6F9401E04494861002085
:100D700088610520086100BF70BD000000E000E050
:100D80000248806838210840704700000010024087
:100D900010B5044600F002FA2060206800F0D4F993
:100DA0006060606800F0E6F9A06010BD014908606D
:100DB00070470000000000200121C9430161704715
:100DC00001680122114301607047C168012211438B
:100DD000C160704710B5024613681748824205D1BA
:100DE00018467024A0434C682043034612488242B0
:100DF00002D01248824206D1184603242402A0439E
:100E0000CC682043034613608868D06200BF08881E
:100E1000906200BF0848824202D00848824203D153
:100E2000087C106300BF00BF00BF5069012420434D
:100E3000506100BF002010BD002C01400020004088
:100E400001460869C007C00F01225040504070475A
:100E50000146C868C007C00F01225040504070478B
:100E6000FEB505460C4601270026284600F030F85E
:100E7000002829D1E1686068084321690843E968CE
:100E8000124A11400843E860A06829697A03914337
:100E90000143296100BF606969690322120291431D
:100EA0000143696100BF6846FFF772FF029E002E92
:100EB0000AD02068002807D000273146284623683A
:100EC000A26900F00CF800BF3846FEBDF3E9FFFF51
:100ED0000146C868012252031040400B7047FFB51D
:100EE00083B00C461D460121C9020598884247D1AE
:100EF0006900192262431046FFF7FCF80646642198
:100F0000FFF7F8F807016900192262431046FFF75E
:100F1000F1F806466900192262431046FFF7EAF825
:100F200064210190FFF7E6F864214843301AC000BD
:100F300032300290FFF7DEF8F821084040003F18F9
:100F40006900192262431046FFF7D4F8064669008B
:100F5000192262431046FFF7CDF864210190FFF794
:100F6000C9F864214843301AC00032300290FFF7BC
:100F7000C1F84007400F381881B20398816045E0FE
:100F8000A900192262431046FFF7B4F8064664210F
:100F9000FFF7B0F80701A900192262431046FFF7D6
:100FA000A9F80646A900192262431046FFF7A2F8E5
:100FB00064210190FFF79EF864214843301A000134
:100FC00032300290FFF796F8F02108403F18A90050
:100FD000192262431046FFF78DF80646A900192230
:100FE00062431046FFF786F864210190FFF782F80C
:100FF00064214843301A000132300290FFF77AF83A
:101000000007000F381881B20398816007B0F0BD67
:1010100008B501460A4A1269009200BF0846421C00
:10102000002A00D0401C07E0054A126901231B0476
:101030001A40002A00D0401E0028F5D108BD00004B
:1010400000E000E0C206D20E01219140014A116089
:101050007047000000E100E010B5002819DA1A4AD4
:1010600003071B0F083B9B089B00D2588307DC0E2D
:10107000FF23A3409A438B071B0E8407E40EA34073
:101080001A43114B0407240F083CA408A4001A516A
:1010900018E00E4A03231B02D21883089B00D25883
:1010A0008307DC0EFF23A3409A438B071B0E8407A4
:1010B000E40EA3401A43054B032424021B198408A1
:1010C000A4001A5110BD00001CED00E000E100E09A
:1010D00010B5002819DA1A4A03071B0F083B9B08B2
:1010E0009B00D2588307DC0EFF23A3409A438B0753
:1010F0001B0E8407E40EA3401A43114B0407240F70
:10110000083CA408A4001A5118E00E4A03231B024D
:10111000D21883089B00D2588307DC0EFF23A3401C
:101120009A438B071B0E8407E40EA3401A43054B1A
:10113000032424021B198408A4001A5110BD0000C6
:101140001CED00E000E100E0014600BF07488068B8
:101150000F22120210401040000A8000044A105C66
:10116000C206D20E0846D040704700000010024070
:101170004C1A0008014600BF064880680722120387
:101180001040000B8000044A105CC206D20E0846D4
:10119000D0407047001002408C1A000870B5FFF76D
:1011A000EFFD002811D0082804D0182804D02028EA
:1011B0000AD106E0124C20E000BF0124E40300BF86
:1011C0001BE00124E40318E000BF00BF0D480068E5
:1011D0000721C9020840C10A012088400546094983
:1011E0004968072252031140490B8900064A5058AA
:1011F0002946FEF77FFF044600BF00BF204670BDB2
:1012000000366E0100100240AC1A000870B50446AA
:10121000202105200007FFF78BFD0A20FFF7F8FECD
:1012200000250FE0202005210907886100BF00F09C
:101230008AF9202105200007FFF77AFD00F083F9E5
:10124000681CC5B2A542EDDB70BD000010B50E48AC
:101250004068000C00040D49098889B208430A4916
:101260004860084640680A49084008494031898872
:10127000C905C909084304494860C803054988608D
:101280006420FFF765FB10BD001002400001FF1F46
:10129000FFFF00FE00ED00E008B5002032490968BC
:1012A000490849000143304A116000BF01202F491D
:1012B000096801432D4A11601146096801400091F7
:1012C00000BF00BF000729494039C96B0143274AC5
:1012D000403AD1631146C96B0140009100BF00BF85
:1012E00000BF10460068911508431146086000BF12
:1012F00000BF00BF1D484038006801218902084036
:10130000800A0028F5D000201849403989680F224A
:10131000120291430143154A403A916000BF00BF59
:1013200011468968C908C9000143916000BF00BF28
:1013300000BF0E4840388068382108400028F7D1A7
:1013400000BF0A49403989680722120391430143CB
:10135000064A403A916000BF0548FFF7FDFC04488B
:10136000FFF724FD08BD00000020024040100240AD
:1013700000366E0110B51948FFF762FD00282BD02A
:101380001648FFF765FD002826D01448FFF714FD26
:1013900001201349087013480068401C1149086077
:1013A00011480068401C104908600E4800687D2103
:1013B000C900884205D300200A49086001200B4972
:1013C0000870094800680A49884205D30020064988
:1013D000086001200749087010BD0000002000408F
:1013E00034000020380000203C0000204000002095
:1013F000B80B00004100002010B50848FFF720FDA1
:10140000002809D00548FFF723FD002804D0034831
:10141000FFF7D2FC00F0B8F810BD0000002C01402E
:1014200000B585B00120C003FFF7A6FB1421684674
:10143000FEF77DFE002003900190072168460180A1
:101440000D48029000216846017469460B48FFF779
:10145000C1FC0A48FFF7B0FC0848FFF7B6FC074894
:10146000FFF7AEFC1320FFF7EDFD00211320FFF77F
:10147000F3FD05B000BD0000B70B000000200040E8
:1014800000B585B00120C002FFF776FB1421684645
:10149000FEF74DFE00200390019007216846018071
:1014A0001D20029000216846017469460A48FFF732
:1014B00091FC0948FFF780FC0748FFF786FC0648C7
:1014C000FFF77EFC0D20FFF7BDFD00210D20FFF78B
:1014D000C3FD05B000BD0000002C014000BF09485D
:1014E000006820210840400900280AD000BF0548B4
:1014F000C06808404009002803D0024840680249FB
:1015000008707047003801404200002030B4744633
:10151000641E2578641CAB4204D3635D5B00E31852
:1015200030BC18471D46F8E702E008C8121F08C182
:10153000002AFAD170477047002001E001C1121F54
:10154000002AFBD17047002002E000BF411C88B296
:10155000FF210F318842F8DB704700000020054969
:101560000880054908700549087005490860054963
:1015700008707047480000204A0000204B000020FF
:10158000500000204500002010B590480078002849
:1015900005D08E480078401E8C49087010BD8C48DC
:1015A0000078002802D0012849D149E08948007814
:1015B00000281FD110218848FFF7AFFB002809D071
:1015C0008648008850283ADA84480088401C8349BD
:1015D000088034E081480088142808DD00207F4915
:1015E00008807C480078401C7A49087027E0FFF7A3
:1015F000B5FF24E010217848FFF78FFB00280DD1BC
:10160000764800887649884205DA74480088401C8C
:101610007249088013E0FFF7A1FF10E06F480088CF
:10162000AF218900884208DD00206C4908806949A3
:10163000087001206649087001E0FFF78FFFC1E0E4
:1016400064480078002833D110216348FFF765FB18
:1016500000280CD061480088822805DA5F4800889D
:10166000401C5E490880ACE0FFF778FFA9E05B48CA
:1016700000883C280ADD59480088822806DA0020C4
:10168000564908800120534908709AE05348008861
:101690000A280ADD514800883C2806DA00204F4914
:1016A000088002204B4908708BE0FFF757FF88E065
:1016B00048480078012843D110214748FFF72DFB07
:1016C00000280CD1454800883C2805DA43480088AA
:1016D000401C4249088074E0FFF740FF71E03F483A
:1016E00000880A2819DD3D4800883C2815DA0020CA
:1016F0003A490880374908703A480068400039493B
:1017000008600846006801210843364908603648E9
:101710000078401C3449087001E0FFF71FFF324891
:10172000007818284DDB2F48006830490860C82031
:101730002649087001202E490870FFF70FFF40E08E
:101740002448007802283CD110212348FFF7E5FA0D
:1017500000280CD121480088822805DA1F4800881B
:10176000401C1E4908802CE0FFF7F8FE29E01B48CA
:1017700000883C2813DD1948008882280FDA0020F1
:10178000164908801349087016480068400015493A
:10179000086015480078401C1349087001E0FFF705
:1017A000DDFE1148007818280BDB0E4800680F4951
:1017B0000860C8200549087001200D490870FFF72E
:1017C000CDFE00BF00BF00BFE8E6000046000020DD
:1017D0004A0000204B000020000400504800002078
:1017E0001405000050000020450000204C0000209F
:1017F0004400002030B50346002005E084001C5959
:1018000085004C51441CA0B29042F7DB30BD000073
:1018100000B587B00120FFF791FA0220FFF78EFA9A
:101820000420FFF78BFA182101A8FEF780FC102096
:10183000019001200290039000200490059001A9DE
:1018400005200007FFF7E3F90820019001A9052012
:101850000007FFF7DCF90220019001A9052000072D
:10186000FFF7D5F90120019001A905200007FFF736
:10187000CEF90120019001A92048FFF7C8F91021F5
:1018800005200007FFF756FA082105200007FFF79B
:1018900051FA022105200007FFF74CFA012105202B
:1018A0000007FFF747FA01211448FFF743FA202009
:1018B000019001A905200007FFF7A9F920200521C3
:1018C0000907886200BF04200190002002900120D7
:1018D0000390059001A90948FFF799F908200190A4
:1018E00001A90648FFF793F9102001900020059008
:1018F00001A90248FFF78BF907B000BD00040050B2
:10190000FFF7CAFCFFF784FFFFF78AFDFFF7B8FD7A
:1019100000F01AF80620FFF779FC0848FFF778FB7B
:10192000402207490748FFF765FFFEF793FCFFF7E2
:10193000C9F801E0FEF718FCFCE70000B80B000056
:10194000EC0000200040000800B58FB0182109A865
:10195000FEF7EDFB1C2102A8FEF7E9FB0120384948
:10196000496B0143364A51631146496B014001916D
:1019700000BF00BF80033249403109680143304A4B
:1019800040321160114609680140019100BF00BF5B
:101990004020099002200A9003200B9000200C9018
:1019A00001200D900E9009A905200007FFF72FF9DF
:1019B0008020099003200E9009A905200007FFF759
:1019C00026F900211B20FFF783FB1B20012181400A
:1019D0001C4A116000BF4B208001029001200003CF
:1019E0000390002004900120800205900C200690B6
:1019F00000200790089002A91348FFF731FA00BFB2
:101A0000114800690121C90288430F49086108464D
:101A10004069082188430C49486100BF00BF08465F
:101A2000C068491408430849C86000BF00BF0846A1
:101A3000C068202108430449C86000BF0FB000BD42
:101A40000010024000E100E000380140000000000A
:101A50000000000000000000000000000000000086
:101A60000000000000000000000000000100000075
:101A70000200000003000000040000000600000057
:101A8000070000000800000009000000000000003E
:101A90000000000000000000000000000100000045
:101AA00002000000030000000400000000093D00E7
:101AB00000127A00000000000000000000366E01F5
:101AC000000000000000000000000000EC1A000808
:101AD000000000205400000028150008401B0008EA
:101AE000540000209C0500003815000800366E01E7
:101AF00000000000000000000000000000000000E6
:101B000000000000000000000100000000010007CC
:101B100000000000000000000000000000000000C5
:101B200000000000000000000000000000000000B5
:101B300000000000000000000000000000000000A5
:04000005080000C12E
:00000001FF
