:020000040800F2
:1000000010040020D9000008E1000008E300000807
:1000100000000000000000000000000000000000E0
:10002000000000000000000000000000E5000008E3
:100030000000000000000000E7000008E9000008E0
:10004000000000000000000000000000EB000008BD
:10005000EB000008EB000008EB000008EB000008D4
:100060000000000000000000000000000000000090
:10007000EB000008CD080008EB00000800000000BD
:1000800000000000EB0000080000000075080008F8
:10009000000000000000000000000000EB0000086D
:1000A00000000000EB00000800000000AD0900089F
:1000B0000000000000000000000000000000000040
:1000C0000448854600F03EF800480047990B0008B8
:1000D000C046C0461004002004488047044800473A
:1000E000FEE7FEE7FEE7FEE7FEE7FEE77D07000826
:1000F000C100000830B50B46014600202022012433
:1001000009E00D46D5409D4205D31D469540491B4B
:100110002546954040191546521E002DF1DC30BD94
:10012000D2B201E00270401C491EFBD2704700228F
:10013000F6E710B513460A4604461946FFF7F0FFE6
:10014000204610BD064C0125064E05E0E36807CCAD
:100150002B430C3C98471034B442F7D3FFF7B4FF5D
:10016000940D0008B40D000808B5054941430091FD
:1001700000BF00BF00994A1E00920029F9D108BDB6
:10018000B80B000008B5054909680143034A11602E
:10019000114609680140009100BF08BD40100240AF
:1001A000F0B502460B46002661E00124B440196810
:1001B000214000295AD0586814680D464D436F00FD
:1001C000ED19AC430D464D4345432C43146000BF2D
:1001D0005868012802D0586802280DD198689468A0
:1001E0000D464D436F00ED19AC430D464D4345435D
:1001F0002C43946000BF00BF1869D4680D464D437E
:100200006F00ED19AC430D464D4345432C43D4607C
:1002100000BF5868022829D1FF2911D85869146AEB
:100220000D464D434D434D43EF007D1BAC430D4602
:100230004D434D434D4345432C43146200BF15E0ED
:100240005F69080A40430C0A60430C0A6043C4001B
:10025000241A506AA0430C0A64430D0A6C430D0A29
:100260006C437C432043506200BF00BF761C18687B
:10027000F040002899D15868012802D05868022817
:1002800009D1DC68186855688543074667433D43D4
:10029000556000BF00BF0020F0BD816270478161E2
:1002A000704742694A4042617047000008B50549FD
:1002B000496B0143034A51631146496B0140009168
:1002C00000BF08BD0010024070B504467D25ED005A
:1002D00029462046FFF70EFF401E044948610020D2
:1002E00088610520086100BF70BD000000E000E0EB
:1002F0000248806838210840704700000010024022
:1003000010B5044600F002FA2060206800F0D4F92D
:100310006060606800F0E6F9A06010BD0149086007
:1003200070470000000000200121C94301617047AF
:1003300001680122114301607047C1680122114325
:10034000C160704710B5024613681748824205D154
:1003500018467024A0434C6820430346124882424A
:1003600002D01248824206D1184603242402A04338
:10037000CC682043034613608868D06200BF0888B9
:10038000906200BF0848824202D00848824203D1EE
:10039000087C106300BF00BF00BF506901242043E8
:1003A000506100BF002010BD002C01400020004023
:1003B00001460869C007C00F0122504050407047F5
:1003C0000146C868C007C00F012250405040704726
:1003D000FEB505460C4601270026284600F030F8F9
:1003E000002829D1E1686068084321690843E96869
:1003F000124A11400843E860A06829697A039143D2
:100400000143296100BF60696969032212029143B7
:100410000143696100BF6846FFF772FF029E002E2C
:100420000AD02068002807D00027314628462368D4
:10043000A26900F00CF800BF3846FEBDF3E9FFFFEB
:100440000146C868012252031040400B7047FFB5B7
:1004500083B00C461D460121C9020598884247D148
:100460006900192262431046FFF744FE06466421E4
:10047000FFF740FE07016900192262431046FFF7AB
:1004800039FE06466900192262431046FFF732FE24
:1004900064210190FFF72EFE64214843301AC0000A
:1004A00032300290FFF726FEF821084040003F1846
:1004B0006900192262431046FFF71CFE06466900D8
:1004C000192262431046FFF715FE64210190FFF7E1
:1004D00011FE64214843301AC00032300290FFF709
:1004E00009FE4007400F381881B20398816045E04B
:1004F000A900192262431046FFF7FCFD064664215D
:10050000FFF7F8FD0701A900192262431046FFF723
:10051000F1FD0646A900192262431046FFF7EAFDE5
:1005200064210190FFF7E6FD64214843301A000181
:1005300032300290FFF7DEFDF02108403F18A9009D
:10054000192262431046FFF7D5FD0646A90019227D
:1005500062431046FFF7CEFD64210190FFF7CAFD0C
:1005600064214843301A000132300290FFF7C2FD87
:100570000007000F381881B20398816007B0F0BD02
:1005800008B501460A4A1269009200BF0846421C9B
:10059000002A00D0401C07E0054A126901231B0411
:1005A0001A40002A00D0401E0028F5D108BD0000E6
:1005B00000E000E0C206D20E01219140014A116024
:1005C0007047000000E100E010B5002819DA1A4A6F
:1005D00003071B0F083B9B089B00D2588307DC0EC8
:1005E000FF23A3409A438B071B0E8407E40EA3400E
:1005F0001A43114B0407240F083CA408A4001A5105
:1006000018E00E4A03231B02D21883089B00D2581D
:100610008307DC0EFF23A3409A438B071B0E84073E
:10062000E40EA3401A43054B032424021B1984083B
:10063000A4001A5110BD00001CED00E000E100E034
:1006400010B5002819DA1A4A03071B0F083B9B084C
:100650009B00D2588307DC0EFF23A3409A438B07ED
:100660001B0E8407E40EA3401A43114B0407240F0A
:10067000083CA408A4001A5118E00E4A03231B02E8
:10068000D21883089B00D2588307DC0EFF23A340B7
:100690009A438B071B0E8407E40EA3401A43054BB5
:1006A000032424021B198408A4001A5110BD000061
:1006B0001CED00E000E100E0014600BF0748806853
:1006C0000F22120210401040000A8000044A105C01
:1006D000C206D20E0846D04070470000001002400B
:1006E000140D0008014600BF064880680722120367
:1006F0001040000B8000044A105CC206D20E08466F
:10070000D040704700100240540D000870B5FFF74C
:10071000EFFD002811D0082804D0182804D0202884
:100720000AD106E0124C20E000BF0124E40300BF20
:100730001BE00124E40318E000BF00BF0D4800687F
:100740000721C9020840C10A01208840054609491D
:100750004968072252031140490B8900064A505844
:100760002946FFF7C7FC044600BF00BF204670BD06
:1007700000366E0100100240740D000810B50E48DE
:100780004068000C00040D49098889B208430A49F1
:100790004860084640680A4908400849403189884D
:1007A000C905C909084304494860C8030549886068
:1007B0006420FFF7D9FC10BD001002400001FF1FAC
:1007C000FFFF00FE00ED00E008B5012027490968A1
:1007D0000143264A1160114609680140009100BF9B
:1007E00000BF00BF214840380068911508431F49E9
:1007F0004039086000BF00BF00BF1C484038006897
:10080000012189020840800A0028F5D000201749FC
:10081000403989680F22120291430143134A403A3A
:10082000916000BF00BF11468968C908C900014333
:10083000916000BF00BF00BF0C484038806838217D
:1008400008400028F7D100BF0849403989680722CD
:10085000120391430143054A403A916000BF0448A6
:10086000FFF732FD0248FFF759FD08BD4010024076
:1008700000366E0110B51148FFF79AFD00281BD015
:100880000E48FFF79DFD002816D00C48FFF74CFDE1
:1008900001200B4908700B480068401C094908609A
:1008A000084600687D21C900884205D3002005491B
:1008B000086001200449087010BD000000200040BD
:1008C00004000020080000200C00002010B507489C
:1008D000FFF76EFD002807D00448FFF771FD0028E0
:1008E00002D00248FFF720FD10BD0000002C01409F
:1008F00000B585B00120C003FFF744FC1421684611
:10090000FFF715FC00200390019007216846018045
:100910000D48029000216846017469460B48FFF7B4
:1009200011FD0A48FFF700FD0848FFF706FD0748DC
:10093000FFF7FEFC1320FFF73DFE00211320FFF719
:1009400043FE05B000BD0000B70B000000200040D2
:1009500000B585B00120C002FFF714FC14216846E1
:10096000FFF7E5FB00200390019007216846018016
:100970001D20029000216846017469460A48FFF76D
:10098000E1FC0948FFF7D0FC0748FFF7D6FC064812
:10099000FFF7CEFC0D20FFF70DFE00210D20FFF725
:1009A00013FE05B000BD0000002C014000BF094847
:1009B000006820210840400900280AD000BF0548EF
:1009C000C06808404009002803D002484068024936
:1009D00008707047003801400D00002000BF00BFC4
:1009E0000549096880221140C9090029F7D000BFD4
:1009F0000149486000BF70470038014002E008C864
:100A0000121F08C1002AFAD170477047002001E088
:100A100001C1121F002AFBD17047000010B5194810
:100A20000078002802D00020164908701648007887
:100A3000002825D000201449087010210520000747
:100A4000FFF72FFC082105200007FFF72AFC0221F1
:100A500005200007FFF725FC012105200007FFF70F
:100A600020FC01210948FFF71CFC094800780028F8
:100A700006D007480078FFF7B1FF0020044908704E
:100A800010BD0000040000200C00002000040050F5
:100A90000D000020002002E000BF411C88B2FF21B1
:100AA0000F318842F8DB704700B587B00120FFF7AF
:100AB000FDFB0220FFF7FAFB0420FFF7F7FB1821EC
:100AC00001A8FFF734FB1020019001200290039051
:100AD00000200490059001A905200007FFF760FBA6
:100AE0000820019001A905200007FFF759FB02200B
:100AF000019001A905200007FFF752FB012001909A
:100B000001A905200007FFF74BFB0120019001A977
:100B10002048FFF745FB102105200007FFF7BFFB2A
:100B2000082105200007FFF7BAFB02210520000776
:100B3000FFF7B5FB012105200007FFF7B0FB0121FE
:100B40001448FFF7ACFB2020019001A90520000705
:100B5000FFF726FB202005210907886200BF04203B
:100B600001900020029001200390059001A90948FE
:100B7000FFF716FB0820019001A90648FFF710FBBC
:100B8000102001900020059001A90248FFF708FB02
:100B900007B000BD00040050FFF716FEFFF784FF0A
:100BA000FFF7A6FEFFF7D4FE00F032F8012406E0BE
:100BB000E0B200F00DF80548FFF7E2FC641C0E2CD3
:100BC000F6DD01E0FFF72AFFFCE7000088130000D4
:100BD00070B50446202105200007FFF75EFB0A20C0
:100BE000FFF7CEFC00250FE02020052109078861D2
:100BF00000BFFFF74FFF202105200007FFF74DFB47
:100C0000FFF748FF681CC5B2A542EDDB70BD0000D0
:100C100000B58FB0182109A8FFF789FA1C2102A896
:100C2000FFF785FA01203849496B0143364A516381
:100C30001146496B0140019100BF00BF800332495A
:100C4000403109680143304A403211601146096859
:100C50000140019100BF00BF4020099002200A908E
:100C600003200B9000200C9001200D900E9009A9FC
:100C700005200007FFF794FA8020099003200E90CA
:100C800009A905200007FFF78BFA00211B20FFF7B9
:100C9000D7FC1B20012181401C4A116000BF4B2062
:100CA00080010290012000030390002004900120A5
:100CB000800205900C20069000200790089002A961
:100CC0001348FFF785FB00BF114800690121C902E5
:100CD00088430F49086108464069082188430C4948
:100CE000486100BF00BF0846C0684914084308496E
:100CF000C86000BF00BF0846C068202108430449FF
:100D0000C86000BF0FB000BD0010024000E100E06D
:100D1000003801400000000000000000000000005A
:100D200000000000000000000000000000000000C3
:100D300000000000010000000200000003000000AD
:100D4000040000000600000007000000080000008A
:100D5000090000000000000000000000000000008A
:100D6000000000000100000002000000030000007D
:100D70000400000000093D0000127A00000000009D
:100D80000000000000366E010000000000000000BE
:100D900000000000B40D000800000020100000005A
:100DA000FC090008C40D0008100000200004000029
:100DB0000C0A000800366E01000000000000000070
:040DC000000000002F
:04000005080000C12E
:00000001FF
