:020000040800F2
:1000000020050020D9000008E1000008E3000008F6
:1000100000000000000000000000000000000000E0
:10002000000000000000000000000000E5000008E3
:100030000000000000000000E7000008E9000008E0
:10004000000000000000000000000000EB000008BD
:10005000EB000008EB000008EB000008EB000008D4
:100060000000000000000000000000000000000090
:10007000EB000008990B0008EB00000800000000EE
:1000800000000000EB00000800000000410B000829
:10009000000000000000000000000000EB0000086D
:1000A00000000000EB000008000000007D0C0008CC
:1000B0000000000000000000000000000000000040
:1000C0000448854600F03EF800480047E11000086B
:1000D000C046C04620050020044880470448004729
:1000E000FEE7FEE7FEE7FEE7FEE7FEE7190A000887
:1000F000C100000830B50B46014600202022012433
:1001000009E00D46D5409D4205D31D469540491B4B
:100110002546954040191546521E002DF1DC30BD94
:10012000D2B201E00270401C491EFBD2704700228F
:10013000F6E710B513460A4604461946FFF7F0FFE6
:10014000204610BD064C0125064E05E0E36807CCAD
:100150002B430C3C98471034B442F7D3FFF7B4FF5D
:10016000D4120008F412000800BFFEE708B50549E4
:100170004143009100BF00BF00994A1E0092002930
:10018000F9D108BDB80B000000B5002009E0064910
:10019000411809680022D243914201D0FFF7E4FFE1
:1001A000001DFF28F3D900BD0010000870B51C4CDD
:1001B0001C4D32E000BF1C4800F006F90128FAD0BF
:1001C000194800F0FBF800BF1748406902210843B6
:1001D0001549486100BF00BF0020C043206000BF38
:1001E00000BF114800F0F0F80128FAD000BF0E4817
:1001F00000F0F1F80028FAD000BF01200A49086198
:1002000000BF084600F0D4F800BF0748406902214B
:1002100088430549486100BF8034AC42CAD370BDF1
:1002200000100008001100080020024000B5002066
:100230000BE081088900064A5158064A8218126864
:10024000914201D0FFF790FF001DFF28F1D900BDBA
:10025000200000200010000870B51D4C1D4E1E4DE2
:1002600033E000BF1D4800F0AFF80128FAD01B486A
:1002700000F0A4F800BF194840690121084317495C
:10028000486100BF2A462146144800F0ACF800BF80
:10029000124800F099F80128FAD000BF0F4800F08A
:1002A0009AF80028FAD000BF01200C49086100BF6D
:1002B000084600F07DF800BF08484069400840004B
:1002C0000649486100BF80348035B442C9D370BD4F
:1002D000001000080011000820000020002002404B
:1002E00010B500BF26488068264908432449886025
:1002F00008468068244908432149886000BF00BF40
:100300002248808BC005C00D214908601F48C06984
:100310000001800D48601D48C0698003C00D086160
:100320001A48008CC005C00D88601848006A00019A
:10033000000DC8601548406A8003800B486113486F
:10034000806A8003800B88611048808D80B2C8610C
:100350000E48C06A8000800C086200BFFFF726FFCD
:10036000FFF712FFFFF778FF00BF05484069012142
:10037000C90708430249486100BFFFF757FF10BD96
:100380000020024023016745AB89EFCD0001FF1F2C
:100390000021024008B5054909680143034A11607C
:1003A000114609680140009100BF08BD401002409D
:1003B000416901221206914341617047416901225E
:1003C0001206114341617047014608690122120477
:1003D0001040000C704701460869C007C00F012299
:1003E000504050407047F7B50B4600211C46029D17
:1003F00000BFEFF31086324672B60FE02E6826601B
:100400002D1D241D4E1CF1B21F2907D100BF4669C6
:100410000127FF043E43466100BF00BF2029EDD302
:1004200000BF82F3108800BFFEBDF0B502460B4648
:10043000002661E00124B4401968214000295AD007
:10044000586814680D464D436F00ED19AC430D46D6
:100450004D4345432C43146000BF5868012802D027
:10046000586802280DD1986894680D464D436F0076
:10047000ED19AC430D464D4345432C43946000BFFA
:1004800000BF1869D4680D464D436F00ED19AC43A9
:100490000D464D4345432C43D46000BF58680228A5
:1004A00029D1FF2911D85869146A0D464D434D438F
:1004B0004D43EF007D1BAC430D464D434D434D4333
:1004C00045432C43146200BF15E05F69080A4043AE
:1004D0000C0A60430C0A6043C400241A506AA0430B
:1004E0000C0A64430D0A6C430D0A6C437C432043A1
:1004F000506200BF00BF761C1868F040002899D1F8
:100500005868012802D05868022809D1DC681868A8
:1005100055688543074667433D43556000BF00BFAC
:100520000020F0BD024610690840884201D1012038
:1005300070470020FCE78162704781617047426923
:100540004A4042617047000008B50549496B0143C4
:10055000034A51631146496B0140009100BF08BD39
:100560000010024070B504467D25ED002946204666
:10057000FFF7C0FD401E0449486100208861052046
:10058000086100BF70BD000000E000E00248806824
:1005900038210840704700000010024010B50446A2
:1005A00000F002FA2060206800F0D4F96060606812
:1005B00000F0E6F9A06010BD014908607047000036
:1005C000000000200121C943016170470168012238
:1005D000114301607047C16801221143C160704737
:1005E00010B5024613681748824205D11846702498
:1005F000A0434C68204303461248824202D012486E
:10060000824206D1184603242402A043CC6820432A
:10061000034613608868D06200BF0888906200BFFC
:100620000848824202D00848824203D1087C106305
:1006300000BF00BF00BF506901242043506100BFCC
:10064000002010BD002C0140002000400146086938
:10065000C007C00F01225040504070470146C86893
:10066000C007C00F0122504050407047FEB50546FC
:100670000C4601270026284600F030F8002829D132
:10068000E1686068084321690843E968124A11403B
:100690000843E860A06829697A039143014329610E
:1006A00000BF6069696903221202914301436961D5
:1006B00000BF6846FFF772FF029E002E0AD0206836
:1006C000002807D00027314628462368A26900F099
:1006D0000CF800BF3846FEBDF3E9FFFF0146C868CD
:1006E000012252031040400B7047FFB583B00C4607
:1006F0001D460121C9020598884247D16900192287
:1007000062431046FFF7F6FC06466421FFF7F2FC51
:1007100007016900192262431046FFF7EBFC064609
:100720006900192262431046FFF7E4FC642101903E
:10073000FFF7E0FC64214843301AC00032300290D9
:10074000FFF7D8FCF821084040003F186900192243
:1007500062431046FFF7CEFC064669001922624349
:100760001046FFF7C7FC64210190FFF7C3FC64212A
:100770004843301AC00032300290FFF7BBFC4007FC
:10078000400F381881B20398816045E0A900192212
:1007900062431046FFF7AEFC06466421FFF7AAFC51
:1007A0000701A900192262431046FFF7A3FC064681
:1007B000A900192262431046FFF79CFC64210190B6
:1007C000FFF798FC64214843301A00013230029050
:1007D000FFF790FCF02108403F18A900192262435E
:1007E0001046FFF787FC0646A9001922624310460F
:1007F000FFF780FC64210190FFF77CFC64214843F3
:10080000301A000132300290FFF774FC0007000F2D
:10081000381881B20398816007B0F0BD08B5014671
:100820000A4A1269009200BF0846421C002A00D002
:10083000401C07E0054A126901231B041A40002AE4
:1008400000D0401E0028F5D108BD000000E000E007
:10085000C206D20E01219140014A1160704700008A
:1008600000E100E010B5002819DA1A4A03071B0F4F
:10087000083B9B089B00D2588307DC0EFF23A34054
:100880009A438B071B0E8407E40EA3401A43114BB7
:100890000407240F083CA408A4001A5118E00E4ACB
:1008A00003231B02D21883089B00D2588307DC0E57
:1008B000FF23A3409A438B071B0E8407E40EA3403B
:1008C0001A43054B032424021B198408A4001A515F
:1008D00010BD00001CED00E000E100E010B50028B4
:1008E00019DA1A4A03071B0F083B9B089B00D258D2
:1008F0008307DC0EFF23A3409A438B071B0E84075C
:10090000E40EA3401A43114B0407240F083CA4082B
:10091000A4001A5118E00E4A03231B02D2188308C0
:100920009B00D2588307DC0EFF23A3409A438B071A
:100930001B0E8407E40EA3401A43054B0324240234
:100940001B198408A4001A5110BD00001CED00E022
:1009500000E100E0014600BF074880680F22120254
:1009600010401040000A8000044A105CC206D20EFB
:100970000846D040704700000010024054120008A2
:10098000014600BF06488068072212031040000B92
:100990008000044A105CC206D20E0846D040704760
:1009A000001002409412000870B5FFF7EFFD002818
:1009B00011D0082804D0182804D020280AD106E035
:1009C000124C20E000BF0124E40300BF1BE001241F
:1009D000E40318E000BF00BF0D4800680721C9020A
:1009E0000840C10A01208840054609494968072294
:1009F00052031140490B8900064A50582946FFF717
:100A000079FB044600BF00BF204670BD00366E0172
:100A100000100240B412000810B50E484068000CE7
:100A200000040D49098889B208430A49486008460C
:100A300040680A490840084940318988C905C90900
:100A4000084304494860C803054988606420FFF7EB
:100A50008DFB10BD001002400001FF1FFFFF00FED4
:100A600000ED00E008B50020324909684908490056
:100A70000143304A116000BF01202F49096801433A
:100A80002D4A1160114609680140009100BF00BF66
:100A9000000729494039C96B0143274A403AD163CD
:100AA0001146C96B0140009100BF00BF00BF104656
:100AB0000068911508431146086000BF00BF00BFE1
:100AC0001D4840380068012189020840800A00283A
:100AD000F5D000201849403989680F22120291434D
:100AE0000143154A403A916000BF00BF1146896832
:100AF000C908C9000143916000BF00BF00BF0E4894
:100B000040388068382108400028F7D100BF0A49E2
:100B1000403989680722120391430143064A403A4B
:100B2000916000BF0548FFF71DFD0448FFF744FD35
:100B300008BD0000002002404010024000366E0157
:100B400010B51148FFF782FD00281BD00E48FFF7B3
:100B500085FD002816D00C48FFF734FD01200B4915
:100B600008700B480068401C094908600846006886
:100B70007D21C900884205D3002005490860012075
:100B80000449087010BD000000200040040000204F
:100B9000080000200C00002010B50848FFF756FDA3
:100BA000002809D00548FFF759FD002804D0034864
:100BB000FFF708FD00F0F6F810BD0000002C014022
:100BC00000B585B00120C003FFF7E4FB142168469F
:100BD000FFF7ADFA002003900190072168460180DD
:100BE0000D48029000216846017469460B48FFF7E2
:100BF000F7FC0A48FFF7E6FC0848FFF7ECFC07485B
:100C0000FFF7E4FC1320FFF723FE00211320FFF77A
:100C100029FE05B000BD0000B70B00000020004019
:100C200000B585B00120C002FFF7B4FB142168466F
:100C3000FFF77DFA002003900190072168460180AC
:100C40001D20029000216846017469460A48FFF79A
:100C5000C7FC0948FFF7B6FC0748FFF7BCFC06488D
:100C6000FFF7B4FC0D20FFF7F3FD00210D20FFF787
:100C7000F9FD05B000BD0000002C014000BF09488F
:100C8000006820210840400900280AD000BF05481C
:100C9000C06808404009002803D002484068024963
:100CA00008707047003801400D00002000BF00BFF1
:100CB0000549096880221140C9090029F7D000BF01
:100CC0000149486000BF70470038014002E008C891
:100CD000121F08C1002AFAD170477047002001E0B6
:100CE00001C1121F002AFBD17047000010B519483E
:100CF0000078002802D000201649087016480078B5
:100D0000002825D000201449087010210520000774
:100D1000FFF715FC082105200007FFF710FC022152
:100D200005200007FFF70BFC012105200007FFF756
:100D300006FC01210948FFF702FC09480078002859
:100D400006D007480078FFF7B1FF0020044908707B
:100D500010BD0000040000200C0000200004005022
:100D60000D000020002002E000BF411C88B2FF21DE
:100D70000F318842F8DB704700200549088005499B
:100D800008700549087005490860054908707047F2
:100D90001400002016000020170000201C00002076
:100DA0001100002010B588480078002805D086483A
:100DB0000078401E8449087010BD844800780028DF
:100DC00002D0012849D149E08148007800281FD18C
:100DD00010218048FFF7A6FB002809D07E48008834
:100DE00050283ADA7C480088401C7B49088034E06F
:100DF00079480088142808DD002077490880744865
:100E00000078401C7249087027E0FFF7B5FF24E026
:100E100010217048FFF786FB00280DD16E4800882E
:100E20006E49884205DA6C480088401C6A4908808F
:100E300013E0FFF7A1FF10E067480088AF218900A9
:100E4000884208DD0020644908806149087001205B
:100E50005E49087001E0FFF78FFFB1E05C48007861
:100E600000282BD110215B48FFF75CFB00280CD039
:100E700059480088822805DA57480088401C56499E
:100E800008809CE0FFF778FF99E0534800883C28F1
:100E900006DD00205049088001204D4908708EE091
:100EA0004D4800880A2806DD00204B4908800220B2
:100EB0004749087083E0FFF75FFF80E0444800780F
:100EC00001283FD110214348FFF72CFB00280CD10B
:100ED000414800883C2805DA3F480088401C3E49CC
:100EE00008806CE0FFF748FF69E03B4800880A286B
:100EF00015DD0020384908803549087038480068F9
:100F00004000374908600846006801210843344919
:100F1000086034480078401C3249087001E0FFF74F
:100F20002BFF30480078182849DB2D4800682E49EF
:100F30000860C8202449087001202C490870FFF778
:100F40001BFF3CE022480078022838D110212148BC
:100F5000FFF7E8FA00280CD11F480088822805DA3C
:100F60001D480088401C1C49088028E0FFF704FF4A
:100F700025E0194800883C280FDD0020164908802C
:100F80001349087016480068400015490860154864
:100F90000078401C1349087001E0FFF7EDFE11488E
:100FA000007818280BDB0E4800680F490860C8203D
:100FB0000549087001200D490870FFF7DDFE00BFEC
:100FC00000BF00BFF8E6000012000020160000205D
:100FD0001700002000040050140000201405000039
:100FE0001C0000201100002018000020100000202C
:100FF00000B587B00120FFF7A7FA0220FFF7A4FA97
:101000000420FFF7A1FA182101A8FFF790F810209B
:10101000019001200290039000200490059001A906
:1010200005200007FFF701FA0820019001A905201B
:101030000007FFF7FAF90220019001A90520000737
:10104000FFF7F3F90120019001A905200007FFF740
:10105000ECF90120019001A92048FFF7E6F91021E1
:1010600005200007FFF769FA082105200007FFF7B0
:1010700064FA022105200007FFF75FFA012105202D
:101080000007FFF75AFA01211448FFF756FA20200B
:10109000019001A905200007FFF7C7F920200521CD
:1010A0000907886200BF04200190002002900120FF
:1010B0000390059001A90948FFF7B7F908200190AE
:1010C00001A90648FFF7B1F9102001900020059012
:1010D00001A90248FFF7A9F907B000BD00040050BC
:1010E000FFF7C0FCFFF784FFFFF76AFDFFF798FDED
:1010F00000F02EF8052000F00BF80448FFF78EFBF7
:10110000FFF7EEF801E0FFF7F1FDFCE7B80B000098
:1011100070B50446202105200007FFF70CFA0A20CD
:10112000FFF77CFB00250FE02020052109078861DF
:1011300000BFFFF717FE202105200007FFF7FBF98E
:10114000FFF710FE681CC5B2A542EDDB70BD0000C4
:1011500000B58FB0182109A8FEF7E9FF1C2102A8ED
:10116000FEF7E5FF01203849496B0143364A5163D8
:101170001146496B0140019100BF00BF8003324915
:10118000403109680143304A403211601146096814
:101190000140019100BF00BF4020099002200A9049
:1011A00003200B9000200C9001200D900E9009A9B7
:1011B00005200007FFF739F98020099003200E90E1
:1011C00009A905200007FFF730F900211B20FFF7D0
:1011D00085FB1B20012181401C4A116000BF4B2070
:1011E0008001029001200003039000200490012060
:1011F000800205900C20069000200790089002A91C
:101200001348FFF733FA00BF114800690121C902F2
:1012100088430F49086108464069082188430C4902
:10122000486100BF00BF0846C06849140843084928
:10123000C86000BF00BF0846C068202108430449B9
:10124000C86000BF0FB000BD0010024000E100E028
:101250000038014000000000000000000000000015
:10126000000000000000000000000000000000007E
:101270000000000001000000020000000300000068
:101280000400000006000000070000000800000045
:101290000900000000000000000000000000000045
:1012A0000000000001000000020000000300000038
:1012B0000400000000093D0000127A000000000058
:1012C0000000000000366E01000000000000000079
:1012D00000000000F41200080000002020010000BF
:1012E000CC0C0008141400082001002000040000A9
:1012F000DC0C000800366E01000000000000000059
:1013000000000000000000000000000000000000DD
:101310000000000001010101896745239A785634D5
:10132000AB896745BC9A7856CDAB8967DEBC9A78A5
:10133000EFCDAB89F0DEBC9A01EFCDAB12F0DEBC95
:101340002301EFCD3412F0DE452301EF563412F0C5
:101350006745230101010101896745239A785634C5
:10136000AB896745BC9A7856CDAB8967DEBC9A7865
:10137000EFCDAB89F0DEBC9A01EFCDAB12F0DEBC55
:101380002301EFCD3412F0DE452301EF563412F085
:101390006745230189674523AAAAAAAA5555555529
:1013A00089674523AAAAAAAA555555558967452391
:1013B000AAAAAAAA89674523AAAAAAAA5555555531
:1013C00089674523AAAAAAAA555555558967452371
:1013D000AAAAAAAA89674523AAAAAAAA5555555511
:1013E00089674523AAAAAAAA555555558967452351
:1013F000AAAAAAAA89674523AAAAAAAA55555555F1
:1014000089674523AAAAAAAA555555558967452330
:04141000AAAAAAAA30
:04000005080000C12E
:00000001FF
