:020000040800F2
:1000000020040020D9000008E1000008E3000008F7
:1000100000000000000000000000000000000000E0
:10002000000000000000000000000000E5000008E3
:100030000000000000000000E7000008E9000008E0
:10004000000000000000000000000000EB000008BD
:10005000EB000008EB000008EB000008EB000008D4
:100060000000000000000000000000000000000090
:10007000EB0000088D050008EB0000080000000000
:1000800000000000EB00000800000000350500083B
:10009000000000000000000000000000EB0000086D
:1000A00000000000EB00000800000000EB0000086A
:1000B0000000000000000000000000000000000040
:1000C0000448854600F03EF800480047550A0008FD
:1000D000C046C0462004002004488047044800472A
:1000E000FEE7FEE7FEE7FEE7FEE7FEE73D04000869
:1000F000C100000830B50B46014600202022012433
:1001000009E00D46D5409D4205D31D469540491B4B
:100110002546954040191546521E002DF1DC30BD94
:10012000D2B201E00270401C491EFBD2704700228F
:10013000F6E710B513460A4604461946FFF7F0FFE6
:10014000204610BD064C0125064E05E0E36807CCAD
:100150002B430C3C98471034B442F7D3FFF7B4FF5D
:100160006C0A00088C0A000808B505494143009153
:1001700000BF00BF00994A1E00920029F9D108BDB6
:10018000B80B000008B5054909680143034A11602E
:10019000114609680140009100BF08BD40100240AF
:1001A000F0B502460B46002661E00124B440196810
:1001B000214000295AD0586814680D464D436F00FD
:1001C000ED19AC430D464D4345432C43146000BF2D
:1001D0005868012802D0586802280DD198689468A0
:1001E0000D464D436F00ED19AC430D464D4345435D
:1001F0002C43946000BF00BF1869D4680D464D437E
:100200006F00ED19AC430D464D4345432C43D4607C
:1002100000BF5868022829D1FF2911D85869146AEB
:100220000D464D434D434D43EF007D1BAC430D4602
:100230004D434D434D4345432C43146200BF15E0ED
:100240005F69080A40430C0A60430C0A6043C4001B
:10025000241A506AA0430C0A64430D0A6C430D0A29
:100260006C437C432043506200BF00BF761C18687B
:10027000F040002899D15868012802D05868022817
:1002800009D1DC68186855688543074667433D43D4
:10029000556000BF00BF0020F0BD02461069084055
:1002A000884201D1012070470020FCE7816170473E
:1002B00042694A404261704708B50549496B0143AC
:1002C000034A51631146496B0140009100BF08BDCC
:1002D0000010024070B504467D25ED0029462046F9
:1002E000FFF708FF401E044948610020886105208F
:1002F000086100BF70BD000000E000E00149086037
:1003000070470000000000200121C94301617047CF
:1003100001680122114301607047C1680122114345
:10032000C160704710B5024613681748824205D174
:1003300018467024A0434C6820430346124882426A
:1003400002D01248824206D1184603242402A04358
:10035000CC682043034613608868D06200BF0888D9
:10036000906200BF0848824202D00848824203D10E
:10037000087C106300BF00BF00BF50690124204308
:10038000506100BF002010BD002C01400020004043
:1003900001460869C007C00F012250405040704715
:1003A0000146C868C007C00F012250405040704746
:1003B000C206D20E01219140014A1160704700002F
:1003C00000E100E010B5002819DA1A4A03071B0FF4
:1003D000083B9B089B00D2588307DC0EFF23A340F9
:1003E0009A438B071B0E8407E40EA3401A43114B5C
:1003F0000407240F083CA408A4001A5118E00E4A70
:1004000003231B02D21883089B00D2588307DC0EFB
:10041000FF23A3409A438B071B0E8407E40EA340DF
:100420001A43054B032424021B198408A4001A5103
:1004300010BD00001CED00E000E100E010B50E482A
:100440004068000C00040D49098889B208430A4934
:100450004860084640680A49084008494031898890
:10046000C905C909084304494860C80305498860AB
:100470006420FFF779FE10BD001002400001FF1F4D
:10048000FFFF00FE00ED00E008B5012027490968E4
:100490000143264A1160114609680140009100BFDE
:1004A00000BF00BF214840380068911508431F492C
:1004B0004039086000BF00BF00BF1C4840380068DA
:1004C000012189020840800A0028F5D00020174940
:1004D000403989680F22120291430143134A403A7E
:1004E000916000BF00BF11468968C908C900014377
:1004F000916000BF00BF00BF0C48403880683821C1
:1005000008400028F7D100BF084940398968072210
:10051000120391430143054A403A916000BF0448E9
:10052000FFF7D8FE0248FFF7E9FE08BD4010024081
:1005300000366E0110B51148FFF72AFF00281BD0C6
:100540000E48FFF72DFF002816D00C48FFF7DCFE01
:1005500001200B4908700B480068401C09490860DD
:10056000084600687D21C900884205D3002005495E
:10057000086001200449087010BD00000020004000
:1005800014000020180000201C00002010B50848AE
:10059000FFF7FEFE002809D00548FFF701FF0028FD
:1005A00004D00348FFF7B0FE00F0B6F810BD00001D
:1005B000002C014000B585B00120C003FFF7E2FD2B
:1005C00014216846FFF7B3FD002003900190072136
:1005D000684601800D480290002168460174694612
:1005E0000B48FFF79FFE0A48FFF78EFE0848FFF70B
:1005F00094FE0748FFF78CFE1320FFF7D9FE002179
:100600001320FFF7DFFE05B000BD0000B70B0000B0
:100610000020004000B585B00120C002FFF7B2FD08
:1006200014216846FFF783FD002003900190072105
:10063000684601801D2002900021684601746946C9
:100640000A48FFF76FFE0948FFF75EFE0748FFF70D
:1006500064FE0648FFF75CFE0D20FFF7A9FE0021AF
:100660000D20FFF7AFFE05B000BD0000002C0140DB
:1006700002E008C8121F08C1002AFAD1704770476B
:10068000002001E001C1121F002AFBD170470000C9
:1006900010B513480078002802D0002010490870D7
:1006A0001048007800281AD000200E490870102148
:1006B00005200007FFF7FCFD082105200007FFF7D4
:1006C000F7FD022105200007FFF7F2FD01210520BB
:1006D0000007FFF7EDFD01210348FFF7E9FD10BD1D
:1006E000140000201C0000200004005000200549D8
:1006F00008800549087005490870054908600549E2
:1007000008707047080000200A0000200B0000203D
:10071000100000200500002010B58848007800284F
:1007200005D086480078401E8449087010BD844872
:100730000078002802D0012849D149E0814800789A
:1007400000281FD110218048FFF7A7FD002809D0FD
:100750007E48008850283ADA7C480088401C7B4953
:10076000088034E079480088142808DD00207749A3
:10077000088074480078401C7249087027E0FFF731
:10078000B5FF24E010217048FFF787FD00280DD148
:100790006E4800886E49884205DA6C480088401C23
:1007A0006A49088013E0FFF7A1FF10E0674800885E
:1007B000AF218900884208DD002064490880614932
:1007C000087001205E49087001E0FFF78FFFB1E07B
:1007D0005C48007800282BD110215B48FFF75DFDB5
:1007E00000280CD059480088822805DA574800882C
:1007F000401C564908809CE0FFF778FF99E0534879
:1008000000883C2806DD00205049088001204D4921
:1008100008708EE04D4800880A2806DD00204B490C
:10082000088002204749087083E0FFF75FFF80E0FF
:100830004448007801283FD110214348FFF72DFD9F
:1008400000280CD1414800883C2805DA3F48008840
:10085000401C3E4908806CE0FFF748FF69E03B48D8
:1008600000880A2815DD00203849088035490870BD
:100870003848006840003749086008460068012190
:1008800008433449086034480078401C32490870F5
:1008900001E0FFF72BFF30480078182849DB2D488E
:1008A00000682E490860C8202449087001202C499E
:1008B0000870FFF71BFF3CE022480078022838D17F
:1008C00010212148FFF7E9FC00280CD11F480088BF
:1008D000822805DA1D480088401C1C49088028E051
:1008E000FFF704FF25E0194800883C280FDD0020B1
:1008F00016490880134908701648006840001549D9
:10090000086015480078401C1349087001E0FFF7A3
:10091000EDFE1148007818280BDB0E4800680F49DF
:100920000860C8200549087001200D490870FFF7CC
:10093000DDFE00BF00BF00BFF8E60000060000209B
:100940000A0000200B0000200004005008000020D6
:100950001405000010000020050000200C000020FD
:100960000400002000B587B00120FFF7A5FC02209D
:10097000FFF7A2FC0420FFF79FFC182101A8FFF756
:10098000D6FB1020019001200290039000200490DB
:10099000059001A905200007FFF702FC082001903F
:1009A00001A905200007FFF7FBFB0220019001A928
:1009B00005200007FFF7F4FB0120019001A90520A5
:1009C0000007FFF7EDFB0120019001A92048FFF788
:1009D000E7FB102105200007FFF768FC0821052030
:1009E0000007FFF763FC022105200007FFF75EFC0C
:1009F000012105200007FFF759FC01211448FFF7EA
:100A000055FC2020019001A905200007FFF7C8FB35
:100A1000202005210907886200BF042001900020E2
:100A2000029001200390059001A90948FFF7B8FB47
:100A30000820019001A90648FFF7B2FB10200190A1
:100A40000020059001A90248FFF7AAFB07B000BDEE
:100A500000040050FFF718FDFFF784FFFFF7AAFD21
:100A6000FFF7D8FD01E0FFF713FEFCE78C0A000852
:100A7000000000202000000070060008AC0A0008FA
:100A800020000020000400008006000800366E01EF
:100A90000000000000000000000000000000000056
:0C0AA0000000000000000000000000004A
:04000005080000C12E
:00000001FF
