:020000040800F2
:10000000E8050020D9000008E1000008E30000082E
:1000100000000000000000000000000000000000E0
:10002000000000000000000000000000E5000008E3
:100030000000000000000000E7000008E9000008E0
:10004000000000000000000000000000EB000008BD
:10005000EB000008EB000008EB000008EB000008D4
:100060000000000000000000000000000000000090
:10007000EB00000881060008EB000008000000000B
:1000800000000000EB00000800000000550600081A
:10009000000000000000000000000000EB0000086D
:1000A00000000000EB00000800000000A9060008A6
:1000B0000000000000000000000000000000000040
:1000C0000448854600F050F800480047A114000895
:1000D000C046C046E8050020044880470448004761
:1000E000FEE7FEE7FEE7FEE7FEE7FEE7090600089B
:1000F000C100000830B50B46014600202022012433
:1001000009E00D46D5409D4205D31D469540491B4B
:100110002546954040191546521E002DF1DC30BD94
:1001200003460B439B0703D009E008C9121F08C010
:10013000042AFAD203E00B780370401C491C521EBB
:10014000F9D27047D2B201E00270401C491EFBD2C6
:1001500070470022F6E710B513460A4604461946D2
:10016000FFF7F0FF204610BD064C0125064E05E0C6
:10017000E36807CC2B430C3C98471034B442F7D3C8
:10018000FFF7A2FFB01C0008D01C000808B5012032
:10019000274909680143264A116011460968014050
:1001A000009100BF00BF00BF214840380068911592
:1001B00008431F494039086000BF00BF00BF1C480A
:1001C00040380068012189020840800A0028F5D0E3
:1001D00000201749403989680F22120291430143D8
:1001E000134A403A916000BF00BF11468968C908B0
:1001F000C9000143916000BF00BF00BF0C484038F8
:100200008068382108400028F7D100BF08494039EC
:1002100089680722120391430143054A403A9160DD
:1002200000BF044800F022F9024800F033F908BD8D
:100230004010024000366E0108B505494143009167
:1002400000BF00BF00994A1E00920029F9D108BDE5
:10025000B80B000008B5054909680143034A11605D
:10026000114609680140009100BF08BD40100240DE
:10027000416901221206914341617047416901229F
:1002800012061143416170470146086901221204B8
:100290001040000C704701460869C007C00F0122DA
:1002A00050405040704741690122D20711434161DB
:1002B0007047F7B50B4600211C46029D00BFEFF3C7
:1002C0001086324672B60FE02E6826602D1D241D62
:1002D0004E1CF1B21F2907D100BF46690127FF0458
:1002E0003E43466100BF00BF2029EDD300BF82F32B
:1002F000108800BFFEBD00008168044A1143816080
:100300008168034A114381607047000023016745FB
:10031000AB89EFCDF0B502460B46002661E0012423
:10032000B4401968214000295AD0586814680D4615
:100330004D436F00ED19AC430D464D4345432C43EF
:10034000146000BF5868012802D0586802280DD1F7
:10035000986894680D464D436F00ED19AC430D4607
:100360004D4345432C43946000BF00BF1869D468D7
:100370000D464D436F00ED19AC430D464D434543CB
:100380002C43D46000BF5868022829D1FF2911D816
:100390005869146A0D464D434D434D43EF007D1B94
:1003A000AC430D464D434D434D4345432C431462EE
:1003B00000BF15E05F69080A40430C0A60430C0A5D
:1003C0006043C400241A506AA0430C0A64430D0A17
:1003D0006C430D0A6C437C432043506200BF00BF56
:1003E000761C1868F040002899D15868012802D07E
:1003F0005868022809D1DC681868556885430746A3
:1004000067433D43556000BF00BF0020F0BD02467A
:1004100010690840884201D1012070470020FCE7A4
:10042000024610690840884201D10120704700202F
:10043000FCE781627047816270478161704781612A
:1004400070478161704742694A40426170470000CD
:1004500008B50549496B0143034A51631146496B8D
:100460000140009100BF08BD0010024070B5044675
:100470007D25ED0029462046FFF73CFE401E04493D
:100480004861002088610520086100BF70BD000040
:1004900000E000E001490860704700000000002013
:1004A0000121C943016170470168012211430160C4
:1004B0007047C16801221143C160704710B5024600
:1004C00013681748824205D118467024A0434C682F
:1004D000204303461248824202D01248824206D18B
:1004E000184603242402A043CC682043034613602B
:1004F0008868D06200BF0888906200BF08488242C6
:1005000002D00848824203D1087C106300BF00BFBC
:1005100000BF506901242043506100BF002010BD7E
:10052000002C01400020004001460869C007C00FB0
:1005300001225040504070470146C868C007C00FB4
:10054000012250405040704708B501460A4A1269DE
:10055000009200BF0846421C002A00D0401C07E061
:10056000054A126901231B041A40002A00D0401ECC
:100570000028F5D108BD000000E000E0C206D20E60
:1005800001219140014A11607047000000E100E044
:1005900010B5002819DA1A4A03071B0F083B9B08FD
:1005A0009B00D2588307DC0EFF23A3409A438B079E
:1005B0001B0E8407E40EA3401A43114B0407240FBB
:1005C000083CA408A4001A5118E00E4A03231B0299
:1005D000D21883089B00D2588307DC0EFF23A34068
:1005E0009A438B071B0E8407E40EA3401A43054B66
:1005F000032424021B198408A4001A5110BD000012
:100600001CED00E000E100E010B50E484068000C71
:1006100000040D49098889B208430A494860084620
:1006200040680A490840084940318988C905C90914
:10063000084304494860C803054988606420FFF7FF
:10064000FBFD10BD001002400001FF1FFFFF00FE78
:1006500000ED00E010B50848FFF766FF00280AD05B
:100660000548FFF769FF002805D00348FFF718FF8A
:1006700001200249087010BD002000400400002045
:1006800010B50848FFF750FF002809D00548FFF7CC
:1006900053FF002804D00348FFF702FF00F0CAFA16
:1006A00010BD0000002C014000BF09480068202157
:1006B0000840400900280AD000BF0548C06808402B
:1006C0004009002803D0024840680249087070477A
:1006D000003801404800002030B47446641E25787C
:1006E000641CAB4204D3635D5B00E31830BC184765
:1006F0001D46F8E702E008C8121F08C1002AFAD117
:1007000070477047002001E001C1121F002AFBD191
:100710007047000010B59B480078002804D00128DD
:1007200055D0022852D1BEE097480078002806D064
:1007300000F004FF00F052FA00209349087093483B
:100740000078002805D00020914908709149087070
:100750003CE08F480078002823D000208C490870A6
:10076000012001F04FF9042001F0E6F810210520E6
:100770000007FFF75EFE082105200007FFF759FE7E
:10078000022105200007FFF754FE01210520000784
:10079000FFF74FFE01218048FFF74BFE7F4880495D
:1007A00008607C480078002810D000207949087043
:1007B000102105200007FFF73CFE022001F022F97E
:1007C000052001F0B9F8754875490860D7E074480C
:1007D000006800280AD072480068401E704908600E
:1007E00008460068002801D101F0C6F86848007882
:1007F000002804D000206649087001F0BDF8624866
:10080000007800284ED067480068062805D200F01E
:10081000F3FF65486249086041E0002001F0F2F80A
:100820000E2001F089F8002437E010210520000790
:10083000FFF7FFFD082105200007FFF7FAFD022161
:1008400005200007FFF7F5FD012105200007FFF750
:10085000F0FD01215048FFF7ECFD6420FFF774FE26
:10086000102105200007FFF7ECFD082105200007F7
:10087000FFF7E7FD022105200007FFF7E2FD012158
:1008800005200007FFF7DDFD01214348FFF7D9FDF3
:100890006420FFF759FE601CC4B20F2CC5DB00209A
:1008A000394908706BE03E48006800280AD03C488F
:1008B0000068401E3A49086008460068002801D1D7
:1008C00001F05AF833480078002804D0002031495C
:1008D000087001F051F82C48007800284ED03348B9
:1008E00000683C2805D200F043FF2F482C490860DF
:1008F00041E0002001F086F80E2001F01DF80024F0
:1009000037E0102105200007FFF793FD082105209F
:100910000007FFF78EFD022105200007FFF789FD84
:10092000012105200007FFF784FD01211A48FFF788
:1009300080FD6420FFF708FE102105200007FFF767
:1009400080FD082105200007FFF77BFD022105201F
:100950000007FFF776FD012105200007FFF771FD75
:1009600001210D48FFF76DFD6420FFF7EDFD601CD0
:10097000C4B20F2CC5DB00200349087000BF00BFC4
:1009800010BD0000200000204C00002022000020AC
:100990000C000020140000200004005030750000FE
:1009A0001C00002030000020102700003400002030
:1009B00000B585B00120C002FFF74CFC1421684649
:1009C000FFF7C7FB002003900190072168460180D4
:1009D0001D20029000216846017469460A48FFF70D
:1009E0006DFD0948FFF75CFD0748FFF762FD06480B
:1009F000FFF75AFD0D20FFF7C1FD00210D20FFF785
:100A0000C7FD05B000BD0000002C014000B585B059
:100A10000120C003FFF71EFC14216846FFF799FB75
:100A20000020039001900721684601800D48029044
:100A300000216846017469460B48FFF73FFD0A48EC
:100A4000FFF72EFD0848FFF734FD0748FFF72CFDA0
:100A50001320FFF793FD00211320FFF799FD05B048
:100A600000BD0000B70B00000020004010B5414859
:100A70000068042801D3002002E03E480068401CC2
:100A80003C49086001F0C0F83A4800680300FFF7ED
:100A900023FE05040A15253A5300102105200007FE
:100AA000FFF7C7FC48E0102105200007FFF7C1FC55
:100AB000082105200007FFF7BCFC3DE010210520C0
:100AC0000007FFF7B6FC082105200007FFF7B1FC7F
:100AD000022105200007FFF7ACFC2DE010210520C6
:100AE0000007FFF7A6FC082105200007FFF7A1FC7F
:100AF000022105200007FFF79CFC012105200007CB
:100B0000FFF797FC18E0102105200007FFF791FC84
:100B1000082105200007FFF78CFC022105200007B3
:100B2000FFF787FC012105200007FFF782FC012168
:100B30001148FFF77EFC00BF00BF7D20C000FFF71B
:100B400003FD102105200007FFF77BFC082105208D
:100B50000007FFF776FC022105200007FFF771FC74
:100B6000012105200007FFF76CFC01210248FFF777
:100B700068FC10BD3800002000040050002002E096
:100B800000BF411C88B2FF210F318842F8DB70475B
:100B900000210AE088000E4A10580E4A126890425E
:100BA00001D101207047481CC1B21E29F2DB00218F
:100BB0000AE08800084A1058064A1268904201D19B
:100BC0000120EFE7481CC1B21E29F2DB0020E9E753
:100BD0007400002054000020EC00002010B50848EC
:100BE0000068012804D107480068002800D110BD22
:100BF000FFF7CEFF002801D000F036FE00BFF6E779
:100C0000400000203C0000200020054908800549E4
:100C10000870054908700549086005490870704763
:100C200050000020520000205300002058000020F7
:100C30004D00002010B588480078002805D086486F
:100C40000078401E8449087010BD84480078002850
:100C500002D0012849D149E08148007800281FD1FD
:100C600010218048FFF7DCFB002809D07E4800886F
:100C700050283ADA7C480088401C7B49088034E0E0
:100C800079480088142808DD0020774908807448D6
:100C90000078401C7249087027E0FFF7B5FF24E098
:100CA00010217048FFF7BCFB00280DD16E4800886A
:100CB0006E49884205DA6C480088401C6A49088001
:100CC00013E0FFF7A1FF10E067480088AF2189001B
:100CD000884208DD002064490880614908700120CD
:100CE0005E49087001E0FFF78FFFB1E05C480078D3
:100CF00000282BD110215B48FFF792FB00280CD075
:100D000059480088822805DA57480088401C56490F
:100D100008809CE0FFF778FF99E0534800883C2862
:100D200006DD00205049088001204D4908708EE002
:100D30004D4800880A2806DD00204B490880022023
:100D40004749087083E0FFF75FFF80E04448007880
:100D500001283FD110214348FFF762FB00280CD146
:100D6000414800883C2805DA3F480088401C3E493D
:100D700008806CE0FFF748FF69E03B4800880A28DC
:100D800015DD00203849088035490870384800686A
:100D9000400037490860084600680121084334498B
:100DA000086034480078401C3249087001E0FFF7C1
:100DB0002BFF30480078182849DB2D4800682E4961
:100DC0000860C8202449087001202C490870FFF7EA
:100DD0001BFF3CE022480078022838D1102121482E
:100DE000FFF71EFB00280CD11F480088822805DA77
:100DF0001D480088401C1C49088028E0FFF704FFBC
:100E000025E0194800883C280FDD0020164908809D
:100E100013490870164800684000154908601548D5
:100E20000078401C1349087001E0FFF7EDFE1148FF
:100E3000007818280BDB0E4800680F490860C820AE
:100E40000549087001200D490870FFF7DDFE00BF5D
:100E500000BF00BFF8E600004E0000205200002056
:100E60005300002000040050500000201405000032
:100E7000580000204D000020540000204C000020AD
:100E800010B5044600BF1948FFF7FEF90128FAD053
:100E90001648FFF7F3F900BF1448406902210843E0
:100EA0001249486100BF00BF0020C043206000BF5E
:100EB00000BF0E48FFF7E8F90128FAD000BF0B4841
:100EC000FFF7E9F90028FAD000BF012007490861BF
:100ED00000BF0846FFF7CCF900BF04484069022173
:100EE00088430249486100BF10BD00000020024055
:100EF00008B501205A4909680143594A1160114651
:100F000009680140009100BF00BF00075449403903
:100F1000C96B0143524A403AD1631146C96B014043
:100F2000009100BF00BF4F48FFF7E6F900BF4E48F1
:100F3000808BC005C00D4D4908604B48C069000159
:100F4000800D48604848C0698003C00D086146486C
:100F5000008CC005C00D88604348006A0001000D88
:100F6000C8604148406A8003800B48613E48806AFF
:100F70008003800B88613C48808D80B2C8613A480C
:100F8000C06A8000800C086200BF39480068394997
:100F9000086008460068062801D30020086034482D
:100FA000406835490860334800683C2802D3002077
:100FB000304908602E48806830490860084600685B
:100FC000042801D9042008602948C0682C49086019
:100FD00008460068012801D90020086024480069FB
:100FE0002849086008460068032801D900200860E5
:100FF0001F4840692449086008460068012801D953
:1010000000200860002009E08100194A8032891818
:10101000096882001D4B9950411CC8B20628F3DBB9
:10102000002008E081001A4A891809688200194BDB
:101030009950411CC8B21E28F4DB002009E0810051
:10104000134A8032891809688200134B9950411C59
:10105000C8B21E28F3DB0348FFF725F908BD0000DE
:1010600040100240002002400001FF1F002102400A
:10107000004000083000002034000020380000202C
:101080003C00002044000020400000205C000020C4
:101090000041000874000020EC00002010B5044658
:1010A0000648FFF729F92046FFF7EAFE204600F040
:1010B00007F80248FFF7F7F810BD000000200240D3
:1010C00070B50446194D00BF1948FFF7DDF8012837
:1010D000FAD01748FFF7D2F800BF15484069012140
:1010E00008431349486100BF2A4621461048FFF7CC
:1010F000E0F800BF0E48FFF7C7F80128FAD000BF9C
:101100000B48FFF7C8F80028FAD000BF01200849B3
:10111000086100BF0846FFF7ABF800BF044840690C
:10112000400840000249486100BF70BD64010020D2
:101130000020024000B587B00120FFF789F90220A6
:10114000FFF786F90420FFF783F9182101A8FFF7BC
:1011500000F81020019001200290039000200490DC
:10116000059001A905200007FFF7D4F80820019099
:1011700001A905200007FFF7CDF80220019001A981
:1011800005200007FFF7C6F80120019001A90520FE
:101190000007FFF7BFF80120019001A92048FFF7E1
:1011A000B9F8102105200007FFF749F908210520AB
:1011B0000007FFF744F9022105200007FFF73FF978
:1011C000012105200007FFF73AF901211448FFF734
:1011D00036F92020019001A905200007FFF79AF8B1
:1011E000202005210907886200BF0420019000200B
:1011F000029001200390059001A90948FFF78AF8A1
:101200000820019001A90648FFF784F810200190FA
:101210000020059001A90248FFF77CF807B000BD47
:101220000004005010B58F480078002852D10421E6
:101230008D48FFF7ECF8002832D08C48008814283D
:1012400009DD8A4800888A49884204D089480078A4
:10125000401C8849087088480088FF21F531884281
:101260001ADA85480088401C80B283490880FF2133
:10127000F531884210D17F480078022803DB012035
:101280007E49087005E07B480078012801D17C493F
:10129000087000207749087000207449088019E020
:1012A000724800887249884211DA70480088401CF0
:1012B0006E490880084600886D49884207D10020A1
:1012C0006C49087000F0FAF80B2000F035FB0020A4
:1012D0006949088008216448FFF799F800287DD003
:1012E00068480088142809DD6648008860498842FB
:1012F00004D065480078401C634908706348008842
:10130000FF21F53188427BDA60480088401C80B2BA
:101310005E490880FF21F531884271D15A48007832
:1013200003283FDB4F480078002866D15848006802
:10133000032801D3002002E055480068401C5449AE
:10134000086008460068002806D1082000F0F4FA7A
:101350000020504908801FE04D480068012806D150
:10136000092000F0E9FA00204A49088014E04848C2
:101370000068022806D10A2000F0DEFA0020454964
:10138000088009E042480068032805D1072000F0E2
:10139000D3FA05203F49088000203F49088000F02B
:1013A00033FC2AE038480078012826D139480088E3
:1013B000002822D00020374908802A4908700120DF
:1013C00000F0BAFA102105200007FFF736F80821CF
:1013D00005200007FFF731F8022101E014E00FE0DB
:1013E00005200007FFF729F8012105200007FFF776
:1013F00024F801211C48FFF720F80020224908703A
:101400000020204908802BE01E48008818498842A7
:1014100023DA1C480088401C1A49088008460088C6
:101420001349884219D10020174908700D480078E7
:10143000002812D119480068002806D10120174958
:101440000860022000F078FA05E0002013490860E7
:10145000032000F071FA00F0D7FB00200B49088050
:1014600010BD0000220000200004005008000020F1
:10147000B80B00000D0000200A000020140000201E
:101480000C000020120000200E00002010000020A0
:10149000440000202A0000202C00002040000020F2
:1014A000FEF774FEFFF7B2FAFFF782FAFFF742FE8B
:1014B000FFF71EFD01E000F0BBFAFCE710B5FF22CC
:1014C00018210C48FEF73EFEFF2278210A48FEF75D
:1014D00039FEFF2278210948FEF734FE0020084932
:1014E00008600849086000F0D3FB00F0B5FB00F08D
:1014F0008BFB10BD5C00002074000020EC0000207D
:1015000030000020340000200948006809490840E4
:101510000246002108E08800074B1858904201D18C
:1015200001207047481CC1B20629F4DB0020F8E70F
:1015300054000020F0FFFF005C00002010B5FFF712
:10154000E3FF002800D110BD7F4800780007000F9E
:10155000012877D0022804D0042874D0082870D13C
:1015600072E07A480078002804D0794800680028A2
:1015700000D1E8E777480068012803D17648008861
:1015800000285ED1012073490860744872490880C0
:101590000C2000F0D1F900206C490870012070493E
:1015A0000880102105200007FEF74BFF08210520C9
:1015B0000007FEF746FF022105200007FEF741FF66
:1015C000012105200007FEF73CFF01216548FEF7D9
:1015D00038FF6420FEF7B8FF102105200007FEF752
:1015E00028FF082105200007FEF723FF0221052020
:1015F0000007FEF71EFF012105200007FEF719FF77
:1016000001215848FEF715FF6420FEF79DFF1021C9
:1016100005200007FEF715FF082105200007FEF74B
:1016200010FF022105200007FEF70BFF0121052016
:101630000007FEF706FF01214A48FEF702FF00F00F
:10164000E3FA7DE06BE067E042480068002803D1E0
:101650004148008800285ED100203E4908603F488C
:101660003D4908800D2000F067F9002037490870D7
:1016700001203B490880102105200007FEF7E1FE0C
:10168000082105200007FEF7DCFE022105200007E7
:10169000FEF7D7FE012105200007FEF7D2FE01214B
:1016A0003048FEF7CEFE6420FEF74EFF10210520E5
:1016B0000007FEF7BEFE082105200007FEF7B9FE71
:1016C000022105200007FEF7B4FE012105200007D6
:1016D000FEF7AFFE01212348FEF7ABFE6420FEF7C4
:1016E00033FF102105200007FEF7ABFE082105207F
:1016F0000007FEF7A6FE022105200007FEF7A1FE67
:10170000012105200007FEF79CFE01211548FEF788
:1017100098FE00F079FA13E0FFF7A8F910E01248FC
:101720000078401CC0B2104908700A2803DB002072
:10173000087000F099F87D20C0000C49088000BFB7
:1017400000BF00BFFFE60000540000202200002080
:10175000400000203C00002024000020B80B0000C6
:101760002A00002000040050230000202600002052
:1017700010B5FFF70DFA00280BD01A480088002892
:1017800006D17D20C00017490880062000F0D4F85B
:1017900010BD062000F0D0F8134800681E2807D2BC
:1017A00012480068104909688900114A505007E042
:1017B0000E4801680C4800681E3880000D4A115020
:1017C00000F04AFA084800683C2801D3002002E0F3
:1017D00005480068401C0449086000F015FA00BF85
:1017E000D6E700002800002034000020540000202C
:1017F00074000020EC00002010B5FFF785FE0028E3
:101800000BD014480088002806D17D20C000114963
:101810000880062000F090F810BD062000F08CF83B
:101820000D4800680D4908400D49096889000D4AB6
:1018300050500B480068062801D3002002E00848F9
:101840000068401C0649086000F0DEF900F020FA4C
:1018500000BFE1E72800002054000020F0FFFF0057
:10186000300000205C00002010B501202B490870DA
:101870002B480088002806D02A4800682A490968B1
:10188000884200D110BD0020284908802648006801
:101890002449086026480068002803D1082000F089
:1018A0004BF816E022480068012803D1092000F017
:1018B00043F80EE01E480068022803D10A2000F019
:1018C0003BF806E01A480068032802D1072000F020
:1018D00033F8184800680300FEF7FEFE0504080D03
:1018E00012171C003C200E49088013E0FF202D3009
:1018F0000B4908800EE0E12080000949088009E0DA
:10190000E120C0000649088004E00020C0430449EB
:10191000088000BF00BF00BFB4E700002200002025
:101920002A00002018000020540000202C00002075
:10193000440000203800002070B504462021052016
:101940000007FEF778FD0A20FEF7FEFD00250FE0F8
:10195000202005210907886100BFFFF70FF920212A
:1019600005200007FEF767FDFFF708F9681CC5B200
:10197000A542EDDB70BD000010B5002000F042F87C
:101980000E20FFF7D9FF002437E0102105200007C3
:10199000FEF74FFD082105200007FEF74AFD022152
:1019A00005200007FEF745FD012105200007FEF791
:1019B00040FD01211248FEF73CFD6420FEF7C4FD06
:1019C000102105200007FEF73CFD08210520000737
:1019D000FEF737FD022105200007FEF732FD012149
:1019E00005200007FEF72DFD01210548FEF729FD22
:1019F0006420FEF7A9FD601CC4B2052CC5DB10BD38
:101A000000040050054908700021054A1170054A7C
:101A10001170054A1170054A1160704720000020BE
:101A20000C00002014000020210000201C000020D9
:101A300010B568480078002800D110BD0020654925
:101A40000870FFF7EFFBFEF765FE6348008800288B
:101A50000AD061480088401E5F4908800846008817
:101A6000002801D15D4908705D480088002804D035
:101A70005B480088401E5A4908805A480088002860
:101A800004D058480088401E5649088056480078BF
:101A9000002824D055480088401C80B25349088053
:101AA000FF212D3188421ADB002050490880102187
:101AB00005200007FEF7C7FC082105200007FEF7F8
:101AC000C2FC022105200007FEF7BDFC0121052014
:101AD0000007FEF7B8FC01214548FEF7B4FC454875
:101AE0000088401C80B2434908807D21C90088429B
:101AF0006EDB00203F4908803F480088002867D0FF
:101B00003D480088401E3C4908803C480068002849
:101B10000DD13B480088401C80B239490880152807
:101B200028DB002008800820FFF706FF22E033486A
:101B3000006801280DD132480088401C80B230492D
:101B40000880122816DB002008800920FFF7F4FE29
:101B500010E02A48006802280CD129480088401C5F
:101B600080B227490880152804DB002008800A205D
:101B7000FFF7E2FE23480068042807D11A480078DE
:101B8000002803D00020C0431B4908801A48008861
:101B900000281DD10120FFF7CFFE00201249087058
:101BA000102105200007FEF748FC0821052000074A
:101BB000FEF743FC022105200007FEF73EFC012151
:101BC00005200007FEF739FC01210948FEF735FC26
:101BD00000BF32E704000020260000202300002080
:101BE00024000020280000202200002016000020F1
:101BF00000040050060000202A00002044000020BD
:101C00002C0000203800002010B50B4800680B495C
:101C100008600B48006848600A48006888600A4805
:101C20000068C860094800680861094800684861A0
:101C30000848FFF733FA10BD30000020640100208F
:101C400034000020380000203C0000204400002028
:101C5000400000200040000810B5782208490948DB
:101C6000FEF75EFA0848FFF719FA78220749054897
:101C7000FEF756FA04488030FFF710FA10BD000056
:101C8000740000206401002000410008EC000020E6
:101C900010B5182203490448FEF742FA0348FFF73B
:101CA000FDF910BD5C0000206401002080400008A8
:101CB000D01C0008000000205C000000F4060008B2
:101CC0002C1D00085C0000208C05000004070008A3
:101CD00000366E010000000000000000000000005F
:101CE00000000000000000000000000000000000F4
:101CF00000000000000000000000000000000000E4
:101D000000000000000000000400000000000000CF
:101D100000000000000000000000000000000000C3
:0C1D2000000000000000000000000000B7
:04000005080000C12E
:00000001FF
